:0400000007EF00F016
:0A000800738218ED08F06DEF1AF096
:10100000003738392F3435362A3132332D23303DED
:101010002B54656D706572617475726520697320FB
:101020003A200057656C636F6D652E0025690000DE
:101030000600FACFDDF0FBCFDEF0E9CFDFF0EACF3C
:10104000E0F0E1CFE1F0E2CFE2F0D9CFE3F0DACFA8
:10105000E4F0F3CFE5F0F4CFE6F0F6CFE7F0F7CF2A
:10106000E8F0F8CFE9F0F5CFEAF0F2A83AEF08F0AF
:101070003CEF08F045EF08F0F2A241EF08F043EF33
:1010800008F045EF08F09EEC1DF0F0A64AEF08F0DE
:101090004CEF08F055EF08F0F0A051EF08F053EFD7
:1010A00008F055EF08F09CEC1DF0F0A85AEF08F09E
:1010B0005CEF08F065EF08F0F0A261EF08F063EF75
:1010C00008F065EF08F09AEC1DF0F2A66AEF08F060
:1010D0006CEF08F088EF08F0F2A071EF08F073EF02
:1010E00008F088EF08F081A878EF08F07AEF08F0B0
:1010F00088EF08F00001D205D8A481EF08F083EF53
:1011000008F088EF08F0000ED26F000E65EC1DF0BD
:10111000F2A68DEF08F08FEF08F0ABEF08F0F2A029
:1011200094EF08F096EF08F0ABEF08F081B89BEF72
:1011300008F09DEF08F0ABEF08F00001D251D8A401
:10114000A4EF08F0A6EF08F0ABEF08F0010ED26FA5
:10115000010E65EC1DF0F2A6B0EF08F0B2EF08F05A
:10116000CEEF08F0F2A0B7EF08F0B9EF08F0CEEF3D
:1011700008F081AABEEF08F0C0EF08F0CEEF08F04B
:101180000001D105D8A4C7EF08F0C9EF08F0CEEFF1
:1011900008F0000ED16F000E58EC1DF0F2A6D3EF50
:1011A00008F0D5EF08F0F1EF08F0F2A0DAEF08F060
:1011B000DCEF08F0F1EF08F081BAE1EF08F0E3EFBF
:1011C00008F0F1EF08F00001D151D8A4EAEF08F0DF
:1011D000ECEF08F0F1EF08F0010ED16F010E58ECC2
:1011E0001DF0F2A6F6EF08F0F8EF08F014EF09F0A2
:1011F000F2A0FDEF08F0FFEF08F014EF09F081AC6A
:1012000004EF09F006EF09F014EF09F00001D00532
:10121000D8A40DEF09F00FEF09F014EF09F0000E5C
:10122000D06F000E4BEC1DF0F2A619EF09F01BEF8A
:1012300009F037EF09F0F2A020EF09F022EF09F0F2
:1012400037EF09F081BC27EF09F029EF09F037EFFC
:1012500009F00001D051D8A430EF09F032EF09F0C5
:1012600037EF09F0010ED06F010E4BEC1DF0F2A626
:101270003CEF09F03EEF09F05AEF09F0F2A043EF1E
:1012800009F045EF09F05AEF09F081AE4AEF09F095
:101290004CEF09F05AEF09F00001CF05D8A453EF45
:1012A00009F055EF09F05AEF09F0000ECF6F000E6C
:1012B0003EEC1DF0F2A65FEF09F061EF09F07DEF63
:1012C00009F0F2A066EF09F068EF09F07DEF09F090
:1012D00081BE6DEF09F06FEF09F07DEF09F00001BD
:1012E000CF51D8A476EF09F078EF09F07DEF09F03F
:1012F000010ECF6F010E3EEC1DF09DAC82EF09F0A8
:1013000084EF09F08DEF09F09EAC89EF09F08BEFC7
:1013100009F08DEF09F000EC1DF0F2AA92EF09F050
:1013200094EF09F09DEF09F0F2A499EF09F09BEF1B
:1013300009F09DEF09F08BEC1DF09DA0A2EF09F0E4
:10134000A4EF09F0ADEF09F09EA0A9EF09F0ABEF13
:1013500009F0ADEF09F084EC1DF09DA2B2EF09F0A9
:10136000B4EF09F0BDEF09F09EA2B9EF09F0BBEFB1
:1013700009F0BDEF09F092EC1DF0A0A2C2EF09F058
:10138000C4EF09F0CDEF09F0A1A2C9EF09F0CBEF4E
:1013900009F0CDEF09F07DEC1DF09DA8D2EF09F02A
:1013A000D4EF09F0DDEF09F09EA8D9EF09F0DBEFEB
:1013B00009F0DDEF09F0A0EC1DF09DAAE2EF09F0C5
:1013C000E4EF09F0EDEF09F09EAAE9EF09F0EBEF89
:1013D00009F0EDEF09F0A7EC1DF09DA6F2EF09F082
:1013E000F4EF09F0FDEF09F09EA6F9EF09F0FBEF2D
:1013F00009F0FDEF09F096EC1DF0A0A602EF0AF04F
:1014000004EF0AF00DEF0AF0A1A609EF0AF00BEFC6
:101410000AF00DEF0AF098EC1DF09DA612EF0AF00D
:1014200014EF0AF01DEF0AF09EA619EF0AF01BEF69
:101430000AF01DEF0AF0A6EC1DF09DA422EF0AF0C1
:1014400024EF0AF02DEF0AF09EA429EF0AF02BEF0B
:101450000AF02DEF0AF0A4EC1DF0A0A032EF0AF084
:1014600034EF0AF03DEF0AF0A1A039EF0AF03BEFAC
:101470000AF03DEF0AF0A2EC1DF0EAC0F5FFE9C06A
:10148000F8FFE8C0F7FFE7C0F6FFE6C0F4FFE5C0ED
:10149000F3FFE4C0DAFFE3C0D9FFE2C0E2FFE1C03E
:1014A000E1FFE0C0EAFFDFC0E9FFDEC0FBFFDDC017
:1014B000FAFF739211001250800B1B6E125012240F
:1014C000216E11AE66EF0AF068EF0AF069EF0AF0DC
:1014D00021802150D8B46FEF0AF071EF0AF084EF49
:1014E0000AF02128D8A477EF0AF079EF0AF081EF0B
:1014F0000AF0000E0F6E000E106E000E116E000E40
:10150000126E118E8CEF0AF0000E0F6E000E106E30
:10151000000E116E000E126E1650800B1B1A165024
:101520001624206E15AE97EF0AF099EF0AF09AEFA5
:101530000AF020802050D8B4A0EF0AF0A2EF0AF001
:10154000B5EF0AF02028D8A4A8EF0AF0AAEF0AF015
:10155000B2EF0AF0000E136E000E146E000E156E40
:10156000000E166E158EBDEF0AF0000E136E000E03
:10157000146E000E156E000E166E2050D8B4C3EF18
:101580000AF0C5EF0AF0CDEF0AF02150D8A4CBEF56
:101590000AF0CDEF0AF0D7EF0AF0000E0F6E000E42
:1015A000106E000E116E000E126E6FEF0CF01550E3
:1015B0000F02F3CF26F0F4CF27F026501C6E1D6AE1
:1015C0001E6A1F6A2750226E236A246A256A1450F5
:1015D0001002F3CF26F0F4CF27F026501C26000E81
:1015E0001D221E221F2227502226000E23222422E3
:1015F000252213501102F3CF26F0F4CF27F0265006
:101600001C26000E1D221E221F2227502226000EFD
:101610002322242225221EC01FF01DC01EF01CC044
:101620001DF01C6A13501002F3CF26F0F4CF27F000
:1016300026501C2627501D22000E1E22000E1F229F
:1016400014500F02F3CF26F0F4CF27F026501C26BB
:1016500027501D22000E1E22000E1F221EC01FF04A
:101660001DC01EF01CC01DF01C6A13500F02F3CFEA
:1016700026F0F4CF27F026501C2627501D22000EFE
:101680001E22000E1F2215501002F3CF26F0F4CFB9
:1016900027F02650222627502322000E2422000E57
:1016A000252214501102F3CF26F0F4CF27F0265054
:1016B000222627502322000E2422000E2522155018
:1016C0001102F3CF26F0F4CF27F02650176E2750E3
:1016D000186E196A1A6A19C01AF018C019F017C0E2
:1016E00018F0176A17502226185023221950242266
:1016F0001A5025221CC017F01DC018F01EC019F08A
:101700001FC01AF0190E8AEF0BF0D8901A32193256
:1017100018321732E82E85EF0BF01750222618509A
:101720002322195024221A5025221EC01FF01DC04A
:101730001EF01CC01DF01C6A205021C017F0186A52
:101740001726000E1822820E1724266EFF0E182070
:10175000276EC0EF0BF0D89022362336243625367C
:101760001FAEB5EF0BF0B7EF0BF0B8EF0BF0228028
:10177000D8901C361D361E361F362606D8A02706E2
:1017800024AEC5EF0BF0C7EF0BF0ABEF0BF0000E84
:10179000206E1FAECEEF0BF0D0EF0BF0F4EF0BF09E
:1017A000FF0E1C14176EFF0E1D14186EFF0E1E1474
:1017B000196E7F0E1F141A6E1750181019101A1078
:1017C000D8B4E5EF0BF0E7EF0BF0EBEF0BF0010E09
:1017D000206EF4EF0BF022A0F0EF0BF0F2EF0BF025
:1017E000F4EF0BF0E7EF0BF02050D8B4FAEF0BF06A
:1017F000FCEF0BF020EF0CF0010E2226000E23224E
:101800002422252225A007EF0CF009EF0CF020EF91
:101810000CF022C017F023C018F024C019F025C026
:101820001AF01A341A3219321832173217C022F04D
:1018300018C023F019C024F01AC025F0264A272A20
:1018400027BE2BEF0CF0275008E12628D8A02BEF5D
:101850000CF02DEF0CF037EF0CF0000E226E000EA6
:10186000236E800E246E7F0E256E65EF0CF027BE72
:1018700044EF0CF0275006E12604D8B042EF0CF0FC
:1018800044EF0CF050EF0CF0000E226E000E236EB1
:10189000000E246E000E256E000E1B6E65EF0CF020
:1018A00026C021F0FF0E2216FF0E23167F0E2416EF
:1018B000000E251621A05FEF0CF061EF0CF062EF37
:1018C0000CF0248ED8902130256E1B50251222C09A
:1018D0000FF023C010F024C011F025C012F0120048
:1018E0001EC036F01FC037F020C038F021C039F0DC
:1018F00022C03AF023C03BF024C03CF025C03DF0AC
:101900003DBE85EF0CF088EF0CF0010E89EF0CF076
:10191000000E346E356A34503510D8B492EF0CF0A6
:1019200094EF0CF0A4EF0CF03D1E3C1E3B1E3A1E43
:10193000391E381E371E366C000E372238223922E7
:101940003A223B223C223D22000185BFAAEF0CF047
:10195000ACEF0CF0ADEF0CF0869385BFBAEF0CF056
:10196000855106E18405D8B0B8EF0CF0BAEF0CF061
:10197000C0EF0CF0000E316E010E306EC4EF0CF0B3
:1019800084C030F085C031F082C032F083C033F0C3
:1019900034503510D8A4CFEF0CF0D1EF0CF0D8EFC5
:1019A0000CF086A5D6EF0CF0D8EF0CF0DBEF0CF0C6
:1019B0003206D8A03306000E3F6E1F0E3E6E000E9C
:1019C0000101256F60EF0DF03E06D8A03F06060E20
:1019D0003E24D96E010E3F20DA6E36C001F037C0CA
:1019E00002F038C003F039C004F03AC005F03BC043
:1019F00006F03CC007F03DC008F00A0E096E000E6C
:101A00000A6E000E0B6E000E0C6E000E0D6E000EB8
:101A10000E6E000E0F6E000E106E1AEC11F001C06B
:101A200026F002C027F003C028F004C029F005C04A
:101A30002AF006C02BF007C02CF008C02DF026C0FD
:101A400013F028C014F08EEC1CF01350300FDF6E32
:101A50003006D8A031063206D8A0330636C001F0D1
:101A600037C002F038C003F039C004F03AC005F0C6
:101A70003BC006F03CC007F03DC008F00A0E096EFE
:101A8000000E0A6E000E0B6E000E0C6E000E0D6E38
:101A9000000E0E6E000E0F6E000E106E9BEC0FF01F
:101AA00001C036F002C037F003C038F004C039F08E
:101AB00005C03AF006C03BF007C03CF008C03DF05E
:101AC0003FBE6BEF0DF03F5008E13E04D8A06BEF36
:101AD0000DF06DEF0DF09EEF0DF036503710381011
:101AE00039103A103B103C103D10D8A47AEF0DF09D
:101AF0007CEF0DF0E4EF0CF031BE89EF0DF03150CA
:101B000006E13004D8B087EF0DF089EF0DF0E4EF77
:101B10000CF033BE94EF0DF0335008E13204D8A03E
:101B200094EF0DF096EF0DF09EEF0DF0000186B3EF
:101B30009CEF0DF09EEF0DF0E4EF0CF034503510FB
:101B4000D8A4A5EF0DF0A7EF0DF0AFEF0DF0000159
:101B500086A5ADEF0DF0AFEF0DF0CDEF0DF03E0629
:101B6000D8A03F0634503510D8A4B9EF0DF0BBEF24
:101B70000DF0C1EF0DF0000E2F6E2B0E2E6EC5EF87
:101B80000DF0000E2F6E2D0E2E6E060E3E24D96E19
:101B9000010E3F20DA6E2EC0DFFF1CC011F01DC009
:101BA00012F0060E3E24136E010E3F20146E32C05A
:101BB00015F033C016F0A7EC16F011C01CF012C0DF
:101BC0001DF0120042C0D9FF43C0DAFFDECFF6FF9E
:101BD000DDCFF7FFF86A0800F550250AD8A4F3EF27
:101BE0000DF0F5EF0DF0A4EF0EF042C0D9FF43C0A9
:101BF000DAFFDE2A000EDD22000E0001836F000EE8
:101C0000826F82C086F083C087F08469856942C094
:101C1000D9FF43C0DAFFDECFF6FFDDCFF7FFF86A6A
:101C20000800F550640AD8B418EF0EF01AEF0EF061
:101C30002DEF0EF042C0D9FF43C0DAFFDECFF6FF32
:101C4000DDCFF7FFF86A0800F550690AD8A42BEF3A
:101C50000EF02DEF0EF06DEF0EF042C0D9FF43C035
:101C6000DAFFDE2A000EDD2244C0D9FF45C0DAFFCC
:101C7000DFCF46F0020EDE26DFCF47F0000EDD227A
:101C800046C0D9FF47C0DAFFDECF48F0DDCF49F0CC
:101C9000000E49BEFF0E4A6E4B6E4C6E4D6E4E6E80
:101CA0004F6E40C01CF041C01DF048C01EF049C03E
:101CB0001FF04AC020F04BC021F04CC022F04DC0B4
:101CC00023F04EC024F04FC025F070EC0CF01CC087
:101CD00040F01DC041F0C0EF0EF042C0D9FF43C03C
:101CE000DAFFDECFF6FFDDCFF7FFF86A0800F55028
:101CF000250AD8A47EEF0EF080EF0EF097EF0EF0DD
:101D000042C0D9FF43C0DAFFDE2A000EDD22000EFA
:101D1000026E250E016E40C003F041C004F0DFECFE
:101D200015F0000E416E010E406EC0EF0EF042C085
:101D3000D9FF43C0DAFFDE2A000EDD22000E416E1D
:101D4000000E406EC0EF0EF042C0D9FF43C0DAFF74
:101D5000DECFF6FFDDCFF7FFF86A0800F550016E21
:101D6000026A40C003F041C004F0DFEC15F042C04D
:101D7000D9FF43C0DAFFDE2A000EDD2291EF0EF01C
:101D80001200096E0950D8B4C8EF0EF0CAEF0EF079
:101D9000ECEF0EF004BED1EF0EF0CFEF0EF0ECEF53
:101DA0000EF001C005F002C006F003C007F004C049
:101DB00008F0051E061E071E081E052A000E062234
:101DC0000722082205C00BF006C00CF007C00DF07A
:101DD00008C00EF0F4EF0EF001C00BF002C00CF0E2
:101DE00003C00DF004C00EF00150021003100410E7
:101DF000D8A4FDEF0EF0FFEF0EF009EF0FF0000E8C
:101E0000016E000E026E000E036E000E046E9AEF5D
:101E10000FF0960E0A6E13EF0FF00A2AD8900E32CA
:101E20000D320C320B32000E0B14056E000E0C142A
:101E3000066E000E0D14076EFE0E0E14086E055091
:101E4000061007100810D8A428EF0FF02AEF0FF0A3
:101E50000DEF0FF038EF0FF00A2A010E0B26000EDF
:101E60000C220D220E22D8900E320D320C320B3283
:101E7000000E0B14056E000E0C14066E000E0D14F1
:101E8000076EFF0E0E14086E05500610071008109E
:101E9000D8A44DEF0FF04FEF0FF02CEF0FF057EFEE
:101EA0000FF00A06D8900B360C360D360E360DBEE6
:101EB0005CEF0FF05EEF0FF066EF0FF0020E0A60BE
:101EC00064EF0FF066EF0FF051EF0FF00AB06BEF19
:101ED0000FF06DEF0FF06EEF0FF00D9ED8900A32FD
:101EE0000AC005F0066A076A086A05C008F0076AB2
:101EF000066A056A05500B1206500C1207500D12A7
:101F000008500E120950D8B488EF0FF08AEF0FF086
:101F100092EF0FF004BE91EF0FF08FEF0FF092EF02
:101F20000FF00E8E0BC001F00CC002F00DC003F0DC
:101F30000EC004F01200000E126E10BEA4EF0FF0DF
:101F4000A2EF0FF0B6EF0FF0101E0F1E0E1E0D1EAB
:101F50000C1E0B1E0A1E096C000E0A220B220C22FC
:101F60000D220E220F221022010E126E08BEBDEFAE
:101F70000FF0BBEF0FF0CFEF0FF0081E071E061E8D
:101F8000051E041E031E021E016C000E0222032207
:101F900004220522062207220822010E121A20EE30
:101FA00013F0070EDE6AE806FDE209500A100B1076
:101FB0000C100D100E100F101010D8B4E2EF0FF02F
:101FC000E4EF0FF036EF10F0010E116EF2EF0FF0AC
:101FD000D89009360A360B360C360D360E360F36CB
:101FE0001036112A10AEF7EF0FF0F9EF0FF0E8EF0F
:101FF0000FF0D890133614361536163617361836B5
:1020000019361A360950015C0A5002580B50035811
:102010000C5004580D5005580E5006580F500758D4
:1020200010500858D8A017EF10F019EF10F02AEF51
:1020300010F00950015E0A50025A0B50035A0C501E
:10204000045A0D50055A0E50065A0F50075A105098
:10205000085A1380D89010320F320E320D320C32E3
:102060000B320A320932112EF9EF0FF01250D8B4A8
:102070003CEF10F03EEF10F04EEF10F01A1E191E5C
:10208000181E171E161E151E141E136C000E142289
:10209000152216221722182219221A2213C001F023
:1020A00014C002F015C003F016C004F017C005F00C
:1020B00018C006F019C007F01AC008F0120001C0DD
:1020C0000BF002C00CF005500610D8A46AEF10F017
:1020D0006CEF10F06EEF10F019EF11F00BC0D9FF9C
:1020E0000CC0DAFF03C0DFFF05500B24076E06505B
:1020F0000C20086EFF0E0724D96EFF0E0820DA6E42
:1021000003C0DFFF065007E1030E055CD8B08BEF7C
:1021100010F08DEF10F08FEF10F019EF11F020EEAE
:1021200001F00B50D9260C50DA2203C0DFFF20EE5D
:1021300002F00B50D9260C50DA2203C0DFFF055005
:102140000B24076E06500C20086EFE0E0724D96E75
:10215000FF0E0820DA6E03C0DFFF05500B24076E68
:1021600006500C20086EFD0E0724D96EFF0E0820C5
:10217000DA6E03C0DFFF065007E1070E055CD8B03A
:10218000C4EF10F0C6EF10F0C8EF10F019EF11F027
:1021900020EE03F00B50D9260C50DA2203C0DFFFEB
:1021A00005500B24076E06500C20086EFC0E072409
:1021B000D96EFF0E0820DA6E03C0DFFF065007E17C
:1021C000090E055CD8B0E7EF10F0E9EF10F0EBEF87
:1021D00010F019EF11F00BC007F00CC008F0071E4B
:1021E000081E074A082A030E0714096E0A6A0950D6
:1021F0000B260A500C220950055E0A50065AFC0EA6
:102200000516FF0E061610EF11F00BC0D9FF0CC01B
:10221000DAFF03C0DFFF0506D8A006060B4A0C2A2A
:1022200005500610D8A417EF11F019EF11F005EFC3
:1022300011F01200000E126E08BE23EF11F021EF14
:1022400011F035EF11F0081E071E061E051E041EB4
:10225000031E021E016C000E02220322042205222C
:10226000062207220822010E126E10BE3CEF11F06A
:102270003AEF11F04CEF11F0101E0F1E0E1E0D1E46
:102280000C1E0B1E0A1E096C000E0A220B220C22C9
:102290000D220E220F22102209500A100B100C10D2
:1022A0000D100E100F101010D8B459EF11F05BEF95
:1022B00011F0A3EF11F0010E116E69EF11F0D8903B
:1022C00009360A360B360C360D360E360F361036FA
:1022D000112A10AE6EEF11F070EF11F05FEF11F0F8
:1022E0000950015C0A5002580B5003580C50045816
:1022F0000D5005580E5006580F50075810500858EA
:10230000D8A085EF11F087EF11F097EF11F0095089
:10231000015E0A50025A0B50035A0C50045A0D50D9
:10232000055A0E50065A0F50075A1050085AD890A6
:1023300010320F320E320D320C320B320A320932A9
:10234000112E70EF11F01250D8B4A9EF11F0ABEFCD
:1023500011F0BBEF11F0081E071E061E051E041E1D
:10236000031E021E016C000E02220322042205221B
:1023700006220722082201C001F002C002F003C0B9
:1023800003F004C004F005C005F006C006F007C065
:1023900007F008C008F01200000E0101636F5F51E2
:1023A0006011D8A4D6EF11F0D8EF11F0DCEF11F0E6
:1023B000000E646F75EF12F05FC1EFF060C1F0F0D6
:1023C0008BEC19F00101646F010E5F250001EF6FC6
:1023D000000E010160210001F06F8BEC19F001018A
:1023E000646F000E636F63515F25616F000E6021A3
:1023F000626F020E61250001EF6F000E0101622184
:102400000001F06F8BEC19F00101632B030E636583
:102410000CEF12F00EEF12F0F3EF11F01A0E0101B3
:10242000616FF80EE82EFED7612FFCD700F05FC178
:102430005BF160C15CF1380E01015D6F0BEC19F0CE
:10244000070E0101616F7D0EE82EFED7612FFCD7CC
:102450005FC15BF160C15CF1380E01015D6F0BEC97
:1024600019F0320EE82EFED75FC15BF160C15CF15E
:10247000380E01015D6F0BEC19F05FC15BF160C1BB
:102480005CF1010E01015D6F0BEC19F05FC15BF1B6
:1024900060C15CF1020E01015D6F0BEC19F05FC1D0
:1024A0005BF160C15CF1060E01015D6F0BEC19F090
:1024B0005FC15BF160C15CF10C0E01015D6F0BEC63
:1024C00019F05FC15BF160C15CF1280E01015D6F25
:1024D0000BEC19F05FC15BF160C15CF1800E010192
:1024E0005D6F0BEC19F00101646F64511200010E75
:1024F0000001ED6FEB51EC11D8B481EF12F083EFD6
:1025000012F095EF12F0EBC0D9FFECC0DAFFDF302C
:10251000E832E832070B0101526F070E526593EF64
:1025200012F095EF12F0FBEF12F0000E0001ED6FCC
:102530001EEF13F0EBC0D9FFECC0DAFFDF30E8325A
:10254000E832070B526F010E536F522BAAEF12F0B5
:10255000D8905337522FA8EF12F001015351FF0AC0
:10256000546FEBC0D9FFECC0DAFFDF50070B556F9B
:102570005551020D410EF324D96E010EF420DA6E8E
:10258000DECF56F1DDCF57F156C1D9FF57C1DAFF83
:102590005451DF161EEF13F0EBC0D9FFECC0DAFF89
:1025A000DF30E832E832070B526F010E536F522BC7
:1025B000DCEF12F0D8905337522FDAEF12F0EBC065
:1025C000D9FFECC0DAFFDF50070B0101546F545103
:1025D000020D410EF324D96E010EF420DA6EDECF27
:1025E00055F1DDCF56F155C1D9FF56C1DAFF535130
:1025F000DF121EEF13F0EBC0D9FFECC0DAFF0001D1
:10260000DFBC05EF13F008EF13F0010E09EF13F034
:10261000000E0101526F536B5351000AD8B413EFEF
:1026200013F095EF12F05251000AD8B49AEF12F05D
:10263000010AD8B4CCEF12F095EF12F00001ED5181
:102640001200010E0001EE6FEB51EC11D8B42BEF2C
:1026500013F02DEF13F03FEF13F0EBC0D9FFECC0F8
:10266000DAFFDF30E832E832070B0101526F070E64
:1026700052653DEF13F03FEF13F0A5EF13F0000E9E
:102680000001EE6FBCEF13F0EBC0D9FFECC0DAFF36
:10269000DF30E832E832070B526F010E536F522BD6
:1026A00054EF13F0D8905337522F52EF13F001012B
:1026B0005351FF0A546FEBC0D9FFECC0DAFFDF5073
:1026C000070B556F5551020D370EF324D96E010ECD
:1026D000F420DA6EDECF56F1DDCF57F156C1D9FFC7
:1026E00057C1DAFF5451DF16BCEF13F0EBC0D9FF2E
:1026F000ECC0DAFFDF30E832E832070B526F010E30
:10270000536F522B86EF13F0D8905337522F84EF2C
:1027100013F0EBC0D9FFECC0DAFFDF50070B01016B
:10272000546F5451020D370EF324D96E010EF4206C
:10273000DA6EDECF55F1DDCF56F155C1D9FF56C166
:10274000DAFF5351DF12BCEF13F00001ED5101012C
:10275000526F536B5351000AD8B4B1EF13F03FEFEF
:1027600013F05251000AD8B444EF13F0010AD8B460
:1027700076EF13F03FEF13F00001EE5112004B0E15
:10278000016E010E026E710E036E000E046E0AECF5
:1027900017F00001F16FFE0E136E430E146EFA0E69
:1027A000156E3E0E166E71C001F072C002F0036A23
:1027B000046A000EC1EC0EF001C00FF002C010F070
:1027C00003C011F004C012F05BEC0AF00FC028F057
:1027D00010C029F011C02AF012C02BF0EEEC14F05A
:1027E00028C071F029C072F0260E6D6E010E6E6E5B
:1027F0007150D2EC1AF00001F16FD30E1A6E000E78
:102800001B6E020E1C6E120E1D6E260E1E6E010E2B
:102810001F6E6EEC18F00001F16F725007E1140E9C
:10282000715CD8B016EF14F018EF14F02AEF14F022
:10283000DB0E0B6E000E0C6E05EC1CF00001F16F50
:10284000D90E0B6E000E0C6E28EC1CF00001F16F1F
:1028500057EF14F0725009E11F0E715CD8A033EFEE
:1028600014F035EF14F047EF14F0D90E0B6E000E94
:102870000C6E05EC1CF00001F16FDB0E0B6E000E10
:102880000C6E28EC1CF00001F16F57EF14F0DB0E1A
:102890000B6E000E0C6EE2EC1BF00001F16FD90E16
:1028A0000B6E000E0C6EE2EC1BF00001F16F1200DB
:1028B000010E0A6E01500210D8B461EF14F063EFFC
:1028C00014F074EF14F001C0D9FF02C0DAFFDF305A
:1028D000E832E832070B046E070E046472EF14F05E
:1028E00074EF14F0D7EF14F0000E0A6EECEF14F052
:1028F00001C0D9FF02C0DAFFDF30E832E832070B4F
:10290000046E010E056E042A88EF14F0D890053687
:10291000042E86EF14F00550FF0A066E01C0D9FFA1
:1029200002C0DAFFDF50070B076E0750020D370EAB
:10293000F324D96E010EF420DA6EDECF08F0DDCF7D
:1029400009F008C0D9FF09C0DAFF0650DF16ECEF26
:1029500014F001C0D9FF02C0DAFFDF30E832E832FC
:10296000070B046E010E056E042AB9EF14F0D8901F
:102970000536042EB7EF14F001C0D9FF02C0DAFF0C
:10298000DF50070B066E0650020D370EF324D96E8A
:10299000010EF420DA6EDECF07F0DDCF08F007C0BD
:1029A000D9FF08C0DAFF0550DF12ECEF14F0035036
:1029B000046E056A0550000AD8B4E1EF14F074EF14
:1029C00014F00450000AD8B478EF14F0010AD8B417
:1029D000A9EF14F074EF14F00A5012002A342B34CB
:1029E000316E3150D8A4F7EF14F0F9EF14F003EF83
:1029F00015F0000E286E000E296E000E2A6E000ED5
:102A00002B6E70EF15F028C02CF029C02DF02AC0D5
:102A10002EF02BC02FF0200E13EF15F0D8902F3290
:102A20002E322D322C32E82E0EEF15F02C50306E57
:102A30002A8EFF0E2816FF0E2916FF0E2A16000EEC
:102A40002B16960E315E31BE2AEF15F028EF15F0E9
:102A500040EF15F03150800A970FD8B032EF15F0E3
:102A600034EF15F036EF15F0F9EF14F0D8902B3263
:102A70002A3229322832313E36EF15F058EF15F060
:102A80001F0E316446EF15F048EF15F050EF15F0CA
:102A9000F9EF14F0D890283629362A362B3631062D
:102AA0003150D8A456EF15F058EF15F04AEF15F055
:102AB0003050D8B45EEF15F060EF15F068EF15F008
:102AC0002B1E2A1E291E286C000E29222A222B22A8
:102AD00028C028F029C029F02AC02AF02BC02BF0EA
:102AE00012000001ED6F9CEF15F09280DEEF15F003
:102AF0009282DEEF15F09284DEEF15F09286DEEF23
:102B000015F0928ADEEF15F09680DEEF15F09682D2
:102B1000DEEF15F09684DEEF15F09384DEEF15F00E
:102B20009386DEEF15F09382DEEF15F09388DEEFEB
:102B300015F09380DEEF15F00001ED51EB6FEC6BBB
:102B4000EC51000AD8B4A7EF15F0DEEF15F0EB5109
:102B5000000AD8B475EF15F0010AD8B478EF15F073
:102B6000030AD8B47BEF15F0010AD8B47EEF15F054
:102B7000070AD8B481EF15F0010AD8B484EF15F034
:102B8000030AD8B487EF15F0010AD8B48AEF15F01C
:102B90000F0AD8B48DEF15F0010AD8B490EF15F0F4
:102BA000030AD8B493EF15F0010AD8B496EF15F0E4
:102BB000070AD8B499EF15F0DEEF15F012000350B4
:102BC0000410D8B4E6EF15F0E8EF15F0F1EF15F0CA
:102BD00003500410D8A4EFEF15F0F1EF15F0F6EF65
:102BE00015F00150A8EC1DF043EF16F020EE09F0AF
:102BF0000350D9260450DA22DE50DE10D8B403EF99
:102C000016F005EF16F020EF16F020EE09F0035055
:102C1000D9260450DA2210EE03F00350E1260450C6
:102C2000E222DE50E65CE650800A096EDE50800A41
:102C30000958D8B01EEF16F020EF16F043EF16F04B
:102C400020EE03F00350D9260450DA22DECF05F03F
:102C5000DDCF06F003C0D9FF04C0DAFFDECF07F0F6
:102C6000DDCF08F005500724D96E06500820DA6E33
:102C700001C0DFFF20EE03F00350D9260450DA2212
:102C8000DE2A000EDD2212000001EE51EF11D8A461
:102C90004CEF16F04EEF16F053EF16F0000E010158
:102CA000526FA5EF16F0C29020EE03F0EE51D92638
:102CB000EF51DA22DF50F06FF047F047F047C05095
:102CC000F019C70BF019C06E20EE04F0EE51D926B2
:102CD000EF51DA22DF50F06FC050F019F80BF01905
:102CE000C06E20EE05F0EE51D926EF51DA22DF500A
:102CF000F06FF047F047C250F019C30BF019C26EE5
:102D000020EE05F0EE51D926EF51DA22DF5071ECBA
:102D100015F0F28EF28C9D8C9E9CEEC0D9FFEFC018
:102D2000DAFFDECFBEF0DDCFBFF0EEC0EBF0EFC0DC
:102D3000ECF0BFEC1BF0EEC0EBF0EFC0ECF050ECB1
:102D40001BF0C280010E0101526F525112000001AE
:102D500086A1ADEF16F0AFEF16F0B9EF16F013C085
:102D60000AF014C00BF011C00CF012C00DF04BECC7
:102D70001CF016BEBEEF16F0C0EF16F0C6EF16F050
:102D800015C01AF016C01BF0CAEF16F0000E1B6E2D
:102D9000000E1A6E000E196E000E186EDCEF16F0A3
:102DA000000E026E200E016E11C003F012C004F07E
:102DB000DFEC15F0184A192A1A50185C1950800ACD
:102DC000176E1B50800A1758D8A0E9EF16F0EBEFEA
:102DD00016F0D0EF16F0000186B1F1EF16F0F3EF28
:102DE00016F0FDEF16F013C00AF014C00BF011C07E
:102DF0000CF012C00DF04BEC1CF013C001F014C02D
:102E000002F0CBEC1CF01A500124116E1B50022072
:102E1000126E120001500210D8B411EF17F013EF28
:102E200017F01CEF17F003500410D8A41AEF17F096
:102E30001CEF17F020EF17F0000E086E6AEF17F086
:102E400020EE06F00150D9260250DA22DFA22BEF45
:102E500017F02DEF17F041EF17F0C350C4CF05F076
:102E6000066A05C006F0056A0526000E062203C0A4
:102E7000D9FF04C0DAFF05C0DEFF06C0DDFF68EF42
:102E800017F020EE06F00150D9260250DA22DFB208
:102E90004CEF17F04EEF17F02DEF17F0C350C4CFE3
:102EA00005F0066A05C006F0056A0526000E062232
:102EB000060E076E063406320532072E5AEF17F05B
:102EC00003C0D9FF04C0DAFF05C0DEFF06C0DDFF86
:102ED000010E086E08501200010E0101656F6207B5
:102EE000A6EF17F05FC15BF160C15CF16251800F2A
:102EF0005D6F0BEC19F00101656FC3EF17F05FC157
:102F00005BF160C15CF16251C00F5D6F0BEC19F0B9
:102F10000101656FC3EF17F05FC15BF160C15CF148
:102F20006251940F5D6F0BEC19F00101656FC3EFF7
:102F300017F05FC15BF160C15CF16251D40F5D6F4E
:102F40000BEC19F00101656FC3EF17F06151636F6E
:102F5000646B6451000AD8B4B0EF17F0C3EF17F0F8
:102F60006351010AD8B472EF17F0030AD8B47FEFA7
:102F700017F0010AD8B48CEF17F0070AD8B499EF0C
:102F800017F0C3EF17F06551120001016651671188
:102F9000D8A4CDEF17F0CFEF17F0D3EF17F0000E56
:102FA0006C6F17EF18F066C15FF167C160F168C11F
:102FB00061F169C162F16CEC17F001016C6FFEEF19
:102FC00017F066C15BF167C15CF16AC1F6FF6BC1C6
:102FD000F7FF000EF86E0F0EF76403D00800F550EF
:102FE00005D0F6CFE9FFF7CFEAFFEF5001015D6FA3
:102FF0004BEC19F001016C6F6A4B6B2B6AC1F6FF49
:103000006BC1F7FF000EF86E0F0EF76403D00800D7
:10301000F55005D0F6CFE9FFF7CFEAFFEF500009F2
:10302000D8A415EF18F017EF18F0E1EF17F0010131
:103030006C511200010E196E16064FEF18F013C0F6
:103040000FF014C010F01650800F116EC7EC19F07D
:10305000196E6CEF18F013C00FF014C010F016507A
:10306000C00F116EC7EC19F0196E6CEF18F013C099
:103070000FF014C010F01650940F116EC7EC19F039
:10308000196E6CEF18F013C00FF014C010F016504A
:10309000D40F116EC7EC19F0196E6CEF18F01550C3
:1030A000176E186A1850000AD8B459EF18F06CEF70
:1030B00018F01750010AD8B41FEF18F0030AD8B45B
:1030C0002BEF18F0010AD8B437EF18F0070AD8B47C
:1030D00043EF18F06CEF18F0195012001A501B1043
:1030E000D8A475EF18F077EF18F07BEF18F0000E0A
:1030F000206EBCEF18F01AC013F01BC014F01CC0F7
:1031000015F01DC016F01AEC18F0206EA3EF18F0A1
:103110001AC00FF01BC010F01EC0F6FF1FC0F7FF53
:10312000000EF86E0F0EF76403D00800F55005D0BE
:10313000F6CFE9FFF7CFEAFFEF50116E00EC1AF07F
:10314000206E1E4A1F2A1EC0F6FF1FC0F7FF000E8A
:10315000F86E0F0EF76403D00800F55005D0F6CFD7
:10316000E9FFF7CFEAFFEF500009D8A4BAEF18F053
:10317000BCEF18F088EF18F020501200020E010189
:1031800058250001EB6F000E010159210001EC6F81
:1031900001015A51010B0001ED6F21EC13F0030EF8
:1031A000010158250001EB6F000E010159210001BA
:1031B000EC6F0101D8905A31010B0001ED6F21EC49
:1031C00013F0040E010158250001EB6F000E010100
:1031D00059210001EC6F01015A41E8423F0B010BFC
:1031E0000001ED6F21EC13F0050E010158250001DF
:1031F000EB6F000E010159210001EC6F01015A39FA
:10320000E8461F0B010B0001ED6F21EC13F00001EC
:10321000EF6FEF51120001015B515C11D8A413EF65
:1032200019F015EF19F019EF19F0000E5E6F49EF64
:1032300019F05BC1EBF05CC1ECF0000E0001ED6F2A
:1032400021EC13F001015E6F5BC158F15CC159F1D3
:103250005D390F0B5A6FBEEC18F001015E6F5BC158
:10326000EFF05CC1F0F0AEEC1CF001015E6F5BC1F1
:1032700058F15CC159F15DC15AF1BEEC18F0010181
:103280005E6F5BC1EFF05CC1F0F0AEEC1CF00101D1
:103290005E6F5E51120001015B515C11D8A453EFC7
:1032A00019F055EF19F059EF19F0000E5E6F89EF24
:1032B00019F05BC1EBF05CC1ECF0010E0001ED6FA9
:1032C00021EC13F001015E6F5BC158F15CC159F153
:1032D0005D390F0B5A6FBEEC18F001015E6F5BC1D8
:1032E000EFF05CC1F0F0AEEC1CF001015E6F5BC171
:1032F00058F15CC159F15DC15AF1BEEC18F0010101
:103300005E6F5BC1EFF05CC1F0F0AEEC1CF0010150
:103310005E6F5E5112000001EF51F011D8B493EFCF
:1033200019F095EF19F0A7EF19F0EFC0D9FFF0C031
:10333000DAFFDF30E832E832070B0101586F070E81
:103340005865A5EF19F0A7EF19F0ACEF19F0000ED2
:103350000101596FC5EF19F0EFC0EBF0F0C0ECF0D0
:1033600077EC12F00101596FEFC0EBF0F0C0ECF018
:10337000EFC0D9FFF0C0DAFF0001000EDFBE010E82
:10338000ED6F21EC13F00101596F595112000F50EC
:103390001010D8A4CEEF19F0D0EF19F0D4EF19F037
:1033A000000E126EFEEF19F00FC001F010C002F017
:1033B000000E036E58EC14F0126E0FC00BF010C02C
:1033C0000CF011380F0B0D6E39EC1AF0126E0FC0A5
:1033D0000BF010C00CF0E6EC1CF0126E0FC00BF0FE
:1033E00010C00CF011C00DF039EC1AF0126E0FC0C5
:1033F0000BF010C00CF0E6EC1CF0126E1250120034
:103400000F501010D8A407EF1AF009EF1AF00DEFC3
:103410001AF0000E126E37EF1AF00FC001F010C054
:1034200002F0010E036E58EC14F0126E0FC00BF098
:1034300010C00CF011380F0B0D6E39EC1AF0126E33
:103440000FC00BF010C00CF0E6EC1CF0126E0FC0B9
:103450000BF010C00CF011C00DF039EC1AF0126E28
:103460000FC00BF010C00CF0E6EC1CF0126E125006
:103470001200020E0B24016E000E0C20026E0D5085
:10348000010B036E58EC14F0030E0B24016E000EBA
:103490000C20026ED8900D30010B036E58EC14F026
:1034A000040E0B24016E000E0C20026E0D40E8424B
:1034B0003F0B010B036E58EC14F0050E0B24016E4C
:1034C000000E0C20026E0D38E8461F0B010B036E38
:1034D00058EC14F00E6E0E501200560EF66E3A0EA8
:1034E000F76E000EF86E01EE2DF010EE25F00900DB
:1034F000F5CFEEFFE550E150FAE1E40EF66E3A0E3C
:10350000F76E000EF86E00EEC8F010EE15F0090030
:10351000F5CFEEFFE550E150FAE101EE00F02D0E9F
:10352000EE6AE806FDE100EE80F0480EEE6AE8067D
:10353000FDE1726A716A7390739200016DEF1CF085
:1035400052C056F053C057F0000E0001816F000EBC
:10355000806FBEEF1AF050C040F051C041F0560EDF
:10356000426E000E436E54C044F055C045F0E2EC8C
:103570000DF04050000180274150812356C0F6FFD6
:1035800057C0F7FFF86A0800F5500009D8A4CBEF40
:103590001AF0CDEF1AF0ABEF1AF080C050F081C0F6
:1035A00051F012006F6E010E706E6D506E10D8A447
:1035B000DCEF1AF0DEEF1AF0E2EF1AF0000E706E98
:1035C000FDEF1AF06DC001F06EC002F0000E046E47
:1035D000000E036E000E066E040E056E5FEC10F01A
:1035E0006DC058F06EC059F02C0E5A6E100E5B6E06
:1035F0006FC05CF05D6A29EC1BF070501200D30EB6
:103600000101666F000E676F020E686F070E696F2B
:10361000230E6A6F100E6B6FC5EC17F00001F16F8F
:10362000060E01016E6F130E6D6FAD0EE82EFED704
:103630006D2FFCD76E2FFAD700D0D30E01015B6F30
:10364000000E5C6F010E5D6F0BEC19F00001F16F65
:1036500012005C0E606E000E616E58C062F059C0C0
:1036600063F0000E666E000E656E000E6C6E000E4E
:103670006B6E620E506E000E516E5AC052F05BC0FF
:1036800053F0600E546E000E556EA0EC1AF06550AB
:103690005824D96E66505920DA6E000EDF6E120083
:1036A000000120EE06F0EB51D926EC51DA22DFA022
:1036B0005CEF1BF05EEF1BF062EF1BF0C18AC1886C
:1036C00075EF1BF020EE06F0EB51D926EC51DA2213
:1036D000DFB06DEF1BF06FEF1BF073EF1BF0C19AC3
:1036E000C19875EF1BF0C19AC1981200010E01013B
:1036F0005C6F5A515B11D8A480EF1BF082EF1BF076
:1037000086EF1BF0000E5C6F98EF1BF05AC1EFF0D4
:103710005BC1F0F08BEC19F0010E01015A2500019C
:10372000EF6F000E01015B210001F06F8BEC19F0CF
:1037300001015C511200D30E01015F6F000E606F3A
:10374000CCEC11F00001F16FDB0E01015A6F000E9D
:103750005B6F76EC1BF00001F16FD90E01015A6F1F
:10376000000E5B6F76EC1BF00001F16F4B0EEE6FFD
:10377000010EEF6F44EC16F00001F16F1200000132
:1037800020EE06F0EB51D926EC51DA22DFA2CBEF86
:103790001BF0CDEF1BF0D0EF1BF0C08EE1EF1BF064
:1037A00020EE06F0EB51D926EC51DA22DFB2DBEF46
:1037B0001BF0DDEF1BF0E0EF1BF0C09EE1EF1BF014
:1037C000C08E1200010E0D6E0B500C10D8A4EBEF42
:1037D0001BF0EDEF1BF0F1EF1BF0000E0D6E03EF91
:1037E0001CF00BC001F00CC002F0000E036E58EC90
:1037F00014F0010E0B24016E000E0C20026E000E60
:10380000036E58EC14F00D501200010E0D6E0B50AB
:103810000C10D8A40EEF1CF010EF1CF014EF1CF0ED
:10382000000E0D6E26EF1CF00BC001F00CC002F074
:10383000010E036E58EC14F0010E0B24016E000E05
:103840000C20026E000E036E58EC14F00D501200A6
:10385000010E0D6E0B500C10D8A431EF1CF033EF9D
:103860001CF037EF1CF0000E0D6E49EF1CF00BC082
:1038700001F00CC002F0000E036E58EC14F0010EC3
:103880000B24016E000E0C20026E010E036E58EC2C
:1038900014F00D501200000E106E000E0F6E5CEF53
:1038A0001CF00EC001F0026A0CC003F00DC004F061
:1038B000DFEC15F00F4A102A0F500A24D96E105071
:1038C0000B20DA6EDF500E6E0E50D8A46AEF1CF09B
:1038D0006CEF1CF051EF1CF012009BEC1BF0FFECA6
:1038E0001AF0D30E0101666F000E676F020E686F4B
:1038F000010E696F110E6A6F100E6B6FC5EC17F039
:103900000001F16F4B0EEB6F010EEC6F18EC1DF028
:103910000001F16F82EF1CF007EF00F014BE9BEF87
:103920001CF0145006E11304D8B099EF1CF09BEF83
:103930001CF0A9EF1CF013C015F014C016F0151EF2
:10394000161E154A162A15C013F016C014F0ADEF56
:103950001CF013C013F014C014F01200010E00018B
:10396000EF25EB6F000EF021EC6F010EED6F21ECF7
:1039700013F000D000D000F0010E0001EF25EB6F36
:10398000000EF021EC6F000EED6F21EC13F0010141
:10399000586F5851120001C003F002C004F0D3EF79
:1039A0001CF0014A022A01C0D9FF02C0DAFFDF5031
:1039B000D8A4DDEF1CF0DFEF1CF0D1EF1CF00350BA
:1039C000015C016E04500258026E1200010E0B24BD
:1039D000016E000E0C20026E010E036E58EC14F006
:1039E00000D000D000F0010E0B24016E000E0C2060
:1039F000026E000E036E58EC14F00D6E0D501200A6
:103A00009E9C0001BE51BF11D8B409EF1DF00BEF11
:103A10001DF017EF1DF002D817EF1DF00500FA6E2C
:103A2000BE51FD6EBF51FE6EFF6AFA5012001200C9
:103A30000001EB51EC11D8A420EF1DF022EF1DF096
:103A400026EF1DF0000EED6F29EF1DF0C282010E72
:103A5000ED6FED511200800F810F820F830F840FE5
:103A6000890F8A0F8B0F8C0F8D0F920F930F940F6E
:0B3A7000950F960F7E27000505000251
:103A7C00016EF2900150D8A446EF1DF048EF1DF0F6
:103A8C004AEF1DF04AEF1DF01200016EF29001504A
:103A9C00D8A453EF1DF055EF1DF057EF1DF057EF65
:103AAC001DF01200016EF2900150D8A460EF1DF0D1
:103ABC0062EF1DF064EF1DF064EF1DF01200016E5B
:103ACC00F2900150D8A46DEF1DF06FEF1DF071EF67
:103ADC001DF071EF1DF01200685A622A1A622A0159
:0D3AEC00010101121A222A323A131B030BAA
:103AFA00A19200019151B36E90C0B2FF12009E9044
:103B0A0000019751CF6E96C0CEFF1200F2940001C9
:103B1A009B51D76E9AC0D6FF12009E92C0C0CCFFAE
:103B2A0012009E961200A1961200F0921200F090D6
:103B3A001200F29212009D981200A19012009E9417
:083B4A0012001200120012002B
:020000040020DA
:08000000FFFFFFFFFFFFFFFF00
:020000040030CA
:0E000000FF020912FF8181FF0FC00FE00F40C9
:00000001FF
